{
  "contractName": "Locker",
  "abi": [
    {
      "anonymous": false,
      "inputs": [
        {
          "indexed": false,
          "internalType": "uint256",
          "name": "index",
          "type": "uint256"
        }
      ],
      "name": "VaultClaimed",
      "type": "event"
    },
    {
      "anonymous": false,
      "inputs": [
        {
          "indexed": false,
          "internalType": "address",
          "name": "tokenContract",
          "type": "address"
        },
        {
          "components": [
            {
              "internalType": "uint256",
              "name": "id",
              "type": "uint256"
            },
            {
              "internalType": "uint256",
              "name": "tokensCount",
              "type": "uint256"
            },
            {
              "internalType": "uint256",
              "name": "releaseTargetTimestamp",
              "type": "uint256"
            },
            {
              "internalType": "bool",
              "name": "claimed",
              "type": "bool"
            }
          ],
          "indexed": false,
          "internalType": "struct Locker.ReleaseCheckpoint[]",
          "name": "releaseCheckpoints",
          "type": "tuple[]"
        },
        {
          "indexed": false,
          "internalType": "uint256",
          "name": "index",
          "type": "uint256"
        }
      ],
      "name": "VaultCreated",
      "type": "event"
    },
    {
      "inputs": [
        {
          "internalType": "address",
          "name": "tokenContract",
          "type": "address"
        },
        {
          "components": [
            {
              "internalType": "uint256",
              "name": "id",
              "type": "uint256"
            },
            {
              "internalType": "uint256",
              "name": "tokensCount",
              "type": "uint256"
            },
            {
              "internalType": "uint256",
              "name": "releaseTargetTimestamp",
              "type": "uint256"
            },
            {
              "internalType": "bool",
              "name": "claimed",
              "type": "bool"
            }
          ],
          "internalType": "struct Locker.ReleaseCheckpoint[]",
          "name": "releaseCheckpoints",
          "type": "tuple[]"
        }
      ],
      "name": "lockERC20",
      "outputs": [
        {
          "internalType": "uint256",
          "name": "",
          "type": "uint256"
        }
      ],
      "stateMutability": "nonpayable",
      "type": "function"
    },
    {
      "inputs": [
        {
          "components": [
            {
              "internalType": "uint256",
              "name": "id",
              "type": "uint256"
            },
            {
              "internalType": "uint256",
              "name": "tokensCount",
              "type": "uint256"
            },
            {
              "internalType": "uint256",
              "name": "releaseTargetTimestamp",
              "type": "uint256"
            },
            {
              "internalType": "bool",
              "name": "claimed",
              "type": "bool"
            }
          ],
          "internalType": "struct Locker.ReleaseCheckpoint[]",
          "name": "cps",
          "type": "tuple[]"
        }
      ],
      "name": "lockNativeCurrency",
      "outputs": [],
      "stateMutability": "payable",
      "type": "function"
    },
    {
      "inputs": [
        {
          "internalType": "uint256",
          "name": "vaultId",
          "type": "uint256"
        },
        {
          "internalType": "uint256[]",
          "name": "checkpoints",
          "type": "uint256[]"
        }
      ],
      "name": "claimByVaultId",
      "outputs": [
        {
          "internalType": "bool",
          "name": "",
          "type": "bool"
        }
      ],
      "stateMutability": "payable",
      "type": "function"
    },
    {
      "inputs": [
        {
          "internalType": "address",
          "name": "userAddress",
          "type": "address"
        }
      ],
      "name": "getUserVaults",
      "outputs": [
        {
          "components": [
            {
              "components": [
                {
                  "internalType": "address",
                  "name": "tokenAddress",
                  "type": "address"
                },
                {
                  "internalType": "bool",
                  "name": "nativeToken",
                  "type": "bool"
                },
                {
                  "components": [
                    {
                      "internalType": "uint256",
                      "name": "id",
                      "type": "uint256"
                    },
                    {
                      "internalType": "uint256",
                      "name": "tokensCount",
                      "type": "uint256"
                    },
                    {
                      "internalType": "uint256",
                      "name": "releaseTargetTimestamp",
                      "type": "uint256"
                    },
                    {
                      "internalType": "bool",
                      "name": "claimed",
                      "type": "bool"
                    }
                  ],
                  "internalType": "struct Locker.ReleaseCheckpoint[]",
                  "name": "checkpoints",
                  "type": "tuple[]"
                }
              ],
              "internalType": "struct Locker.VestedTokenVault[]",
              "name": "userVaults",
              "type": "tuple[]"
            }
          ],
          "internalType": "struct Locker.UserLocks",
          "name": "",
          "type": "tuple"
        }
      ],
      "stateMutability": "view",
      "type": "function"
    }
  ],
  "bytecode": "0x608060405234801561001057600080fd5b50611d1b806100206000396000f3fe60806040526004361061003f5760003560e01c80630c9dd1aa14610044578063436f2f4714610081578063956065ad1461009d578063e7f3c69c146100cd575b600080fd5b34801561005057600080fd5b5061006b600480360381019061006691906111c2565b61010a565b6040516100789190611851565b60405180910390f35b61009b60048036038101906100969190611216565b610688565b005b6100b760048036038101906100b29190611280565b610a6f565b6040516100c49190611714565b60405180910390f35b3480156100d957600080fd5b506100f460048036038101906100ef9190611199565b610e1e565b604051610101919061182f565b60405180910390f35b60008073ffffffffffffffffffffffffffffffffffffffff168373ffffffffffffffffffffffffffffffffffffffff16141561017b576040517f08c379a00000000000000000000000000000000000000000000000000000000081526004016101729061176f565b60405180910390fd5b6000803373ffffffffffffffffffffffffffffffffffffffff1673ffffffffffffffffffffffffffffffffffffffff16815260200190815260200160002060000160018160018154018082558091505003906000526020600020905050600060016000803373ffffffffffffffffffffffffffffffffffffffff1673ffffffffffffffffffffffffffffffffffffffff1681526020019081526020016000206000018054905061022b91906119a7565b905060008060003373ffffffffffffffffffffffffffffffffffffffff1673ffffffffffffffffffffffffffffffffffffffff16815260200190815260200160002060000182815481106102a8577f4e487b7100000000000000000000000000000000000000000000000000000000600052603260045260246000fd5b90600052602060002090600202019050848160000160006101000a81548173ffffffffffffffffffffffffffffffffffffffff021916908373ffffffffffffffffffffffffffffffffffffffff16021790555060008160000160146101000a81548160ff0219169083151502179055506000805b85518110156105b0574286828151811061035f577f4e487b7100000000000000000000000000000000000000000000000000000000600052603260045260246000fd5b602002602001015160400151116103ab576040517f08c379a00000000000000000000000000000000000000000000000000000000081526004016103a2906117ef565b60405180910390fd5b60008682815181106103e6577f4e487b7100000000000000000000000000000000000000000000000000000000600052603260045260246000fd5b60200260200101516020015111610432576040517f08c379a00000000000000000000000000000000000000000000000000000000081526004016104299061180f565b60405180910390fd5b826001016040518060800160405280838152602001888481518110610480577f4e487b7100000000000000000000000000000000000000000000000000000000600052603260045260246000fd5b60200260200101516020015181526020018884815181106104ca577f4e487b7100000000000000000000000000000000000000000000000000000000600052603260045260246000fd5b602002602001015160400151815260200160001515815250908060018154018082558091505060019003906000526020600020906004020160009091909190915060008201518160000155602082015181600101556040820151816002015560608201518160030160006101000a81548160ff0219169083151502179055505050858181518110610584577f4e487b7100000000000000000000000000000000000000000000000000000000600052603260045260246000fd5b6020026020010151602001518261059b9190611951565b915080806105a890611a54565b91505061031c565b508573ffffffffffffffffffffffffffffffffffffffff166323b872dd3330846040518463ffffffff1660e01b81526004016105ee93929190611676565b602060405180830381600087803b15801561060857600080fd5b505af115801561061c573d6000803e3d6000fd5b505050506040513d601f19601f820116820180604052508101906106409190611257565b507ff70fee3b4ca41ab49e885a8ea78e53886b22ef83e7d512ae7eab13394c16dddc868685604051610674939291906116ad565b60405180910390a182935050505092915050565b6000805b825181101561078d5760008382815181106106d0577f4e487b7100000000000000000000000000000000000000000000000000000000600052603260045260246000fd5b6020026020010151905042816040015111610720576040517f08c379a0000000000000000000000000000000000000000000000000000000008152600401610717906117ef565b60405180910390fd5b6000816020015111610767576040517f08c379a000000000000000000000000000000000000000000000000000000000815260040161075e906117cf565b60405180910390fd5b8060200151836107779190611951565b925050808061078590611a54565b91505061068c565b503481146107d0576040517f08c379a00000000000000000000000000000000000000000000000000000000081526004016107c79061178f565b60405180910390fd5b6000803373ffffffffffffffffffffffffffffffffffffffff1673ffffffffffffffffffffffffffffffffffffffff16815260200190815260200160002060000160018160018154018082558091505003906000526020600020905050600060016000803373ffffffffffffffffffffffffffffffffffffffff1673ffffffffffffffffffffffffffffffffffffffff1681526020019081526020016000206000018054905061088091906119a7565b905060008060003373ffffffffffffffffffffffffffffffffffffffff1673ffffffffffffffffffffffffffffffffffffffff16815260200190815260200160002060000182815481106108fd577f4e487b7100000000000000000000000000000000000000000000000000000000600052603260045260246000fd5b9060005260206000209060020201905060018160000160146101000a81548160ff02191690831515021790555060005b8451811015610a685760006040518060800160405280838152602001878481518110610982577f4e487b7100000000000000000000000000000000000000000000000000000000600052603260045260246000fd5b60200260200101516020015181526020018784815181106109cc577f4e487b7100000000000000000000000000000000000000000000000000000000600052603260045260246000fd5b60200260200101516040015181526020016000151581525090508260010181908060018154018082558091505060019003906000526020600020906004020160009091909190915060008201518160000155602082015181600101556040820151816002015560608201518160030160006101000a81548160ff0219169083151502179055505050508080610a6090611a54565b91505061092d565b5050505050565b600080841015610ab4576040517f08c379a0000000000000000000000000000000000000000000000000000000008152600401610aab9061172f565b60405180910390fd5b60008060003373ffffffffffffffffffffffffffffffffffffffff1673ffffffffffffffffffffffffffffffffffffffff1681526020019081526020016000206000018581548110610b2f577f4e487b7100000000000000000000000000000000000000000000000000000000600052603260045260246000fd5b906000526020600020906002020190506000805b85859050811015610cc3576000868683818110610b89577f4e487b7100000000000000000000000000000000000000000000000000000000600052603260045260246000fd5b9050602002013590506000846001018281548110610bd0577f4e487b7100000000000000000000000000000000000000000000000000000000600052603260045260246000fd5b90600052602060002090600402019050600015158160030160009054906101000a900460ff16151514610c38576040517f08c379a0000000000000000000000000000000000000000000000000000000008152600401610c2f906117af565b60405180910390fd5b4281600201541115610c7f576040517f08c379a0000000000000000000000000000000000000000000000000000000008152600401610c769061174f565b60405180910390fd5b806001015484610c8f9190611951565b935060018160030160006101000a81548160ff02191690831515021790555050508080610cbb90611a54565b915050610b43565b508160000160149054906101000a900460ff1615610d27573373ffffffffffffffffffffffffffffffffffffffff166108fc829081150290604051600060405180830381858888f19350505050158015610d21573d6000803e3d6000fd5b50610dda565b8160000160009054906101000a900473ffffffffffffffffffffffffffffffffffffffff1673ffffffffffffffffffffffffffffffffffffffff1663a9059cbb33836040518363ffffffff1660e01b8152600401610d869291906116eb565b602060405180830381600087803b158015610da057600080fd5b505af1158015610db4573d6000803e3d6000fd5b505050506040513d601f19601f82011682018060405250810190610dd89190611257565b505b7f9cbc945fda3433a73b9cba88b4ae676526d53150a85a1fe2ea2f91e2421352d086604051610e099190611851565b60405180910390a16001925050509392505050565b610e26610fde565b6000808373ffffffffffffffffffffffffffffffffffffffff1673ffffffffffffffffffffffffffffffffffffffff16815260200190815260200160002060405180602001604052908160008201805480602002602001604051908101604052809291908181526020016000905b82821015610fcf57838290600052602060002090600202016040518060600160405290816000820160009054906101000a900473ffffffffffffffffffffffffffffffffffffffff1673ffffffffffffffffffffffffffffffffffffffff1673ffffffffffffffffffffffffffffffffffffffff1681526020016000820160149054906101000a900460ff1615151515815260200160018201805480602002602001604051908101604052809291908181526020016000905b82821015610fb857838290600052602060002090600402016040518060800160405290816000820154815260200160018201548152602001600282015481526020016003820160009054906101000a900460ff16151515158152505081526020019060010190610f4d565b505050508152505081526020019060010190610e94565b50505050815250509050919050565b6040518060200160405280606081525090565b6000611004610fff84611891565b61186c565b9050808382526020820190508285608086028201111561102357600080fd5b60005b8581101561105357816110398882611110565b845260208401935060808301925050600181019050611026565b5050509392505050565b60008135905061106c81611ca0565b92915050565b600082601f83011261108357600080fd5b8135611093848260208601610ff1565b91505092915050565b60008083601f8401126110ae57600080fd5b8235905067ffffffffffffffff8111156110c757600080fd5b6020830191508360208202830111156110df57600080fd5b9250929050565b6000813590506110f581611cb7565b92915050565b60008151905061110a81611cb7565b92915050565b60006080828403121561112257600080fd5b61112c608061186c565b9050600061113c84828501611184565b600083015250602061115084828501611184565b602083015250604061116484828501611184565b6040830152506060611178848285016110e6565b60608301525092915050565b60008135905061119381611cce565b92915050565b6000602082840312156111ab57600080fd5b60006111b98482850161105d565b91505092915050565b600080604083850312156111d557600080fd5b60006111e38582860161105d565b925050602083013567ffffffffffffffff81111561120057600080fd5b61120c85828601611072565b9150509250929050565b60006020828403121561122857600080fd5b600082013567ffffffffffffffff81111561124257600080fd5b61124e84828501611072565b91505092915050565b60006020828403121561126957600080fd5b6000611277848285016110fb565b91505092915050565b60008060006040848603121561129557600080fd5b60006112a386828701611184565b935050602084013567ffffffffffffffff8111156112c057600080fd5b6112cc8682870161109c565b92509250509250925092565b60006112e48383611589565b60808301905092915050565b60006112fc8383611608565b905092915050565b61130d816119db565b82525050565b61131c816119db565b82525050565b600061132d826118dd565b611337818561190d565b9350611342836118bd565b8060005b8381101561137357815161135a88826112d8565b9750611365836118f3565b925050600181019050611346565b5085935050505092915050565b600061138b826118dd565b611395818561191e565b93506113a0836118bd565b8060005b838110156113d15781516113b888826112d8565b97506113c3836118f3565b9250506001810190506113a4565b5085935050505092915050565b60006113e9826118e8565b6113f3818561192f565b935083602082028501611405856118cd565b8060005b85811015611441578484038952815161142285826112f0565b945061142d83611900565b925060208a01995050600181019050611409565b50829750879550505050505092915050565b61145c816119ed565b82525050565b61146b816119ed565b82525050565b600061147e601a83611940565b915061148982611b0c565b602082019050919050565b60006114a1601f83611940565b91506114ac82611b35565b602082019050919050565b60006114c4601683611940565b91506114cf82611b5e565b602082019050919050565b60006114e7602a83611940565b91506114f282611b87565b604082019050919050565b600061150a600f83611940565b915061151582611bd6565b602082019050919050565b600061152d601083611940565b915061153882611bff565b602082019050919050565b6000611550601983611940565b915061155b82611c28565b602082019050919050565b6000611573602383611940565b915061157e82611c51565b604082019050919050565b60808201600082015161159f6000850182611658565b5060208201516115b26020850182611658565b5060408201516115c56040850182611658565b5060608201516115d86060850182611453565b50505050565b600060208301600083015184820360008601526115fb82826113de565b9150508091505092915050565b60006060830160008301516116206000860182611304565b5060208301516116336020860182611453565b506040830151848203604086015261164b8282611322565b9150508091505092915050565b61166181611a19565b82525050565b61167081611a19565b82525050565b600060608201905061168b6000830186611313565b6116986020830185611313565b6116a56040830184611667565b949350505050565b60006060820190506116c26000830186611313565b81810360208301526116d48185611380565b90506116e36040830184611667565b949350505050565b60006040820190506117006000830185611313565b61170d6020830184611667565b9392505050565b60006020820190506117296000830184611462565b92915050565b6000602082019050818103600083015261174881611471565b9050919050565b6000602082019050818103600083015261176881611494565b9050919050565b60006020820190508181036000830152611788816114b7565b9050919050565b600060208201905081810360008301526117a8816114da565b9050919050565b600060208201905081810360008301526117c8816114fd565b9050919050565b600060208201905081810360008301526117e881611520565b9050919050565b6000602082019050818103600083015261180881611543565b9050919050565b6000602082019050818103600083015261182881611566565b9050919050565b6000602082019050818103600083015261184981846115de565b905092915050565b60006020820190506118666000830184611667565b92915050565b6000611876611887565b90506118828282611a23565b919050565b6000604051905090565b600067ffffffffffffffff8211156118ac576118ab611acc565b5b602082029050602081019050919050565b6000819050602082019050919050565b6000819050602082019050919050565b600081519050919050565b600081519050919050565b6000602082019050919050565b6000602082019050919050565b600082825260208201905092915050565b600082825260208201905092915050565b600082825260208201905092915050565b600082825260208201905092915050565b600061195c82611a19565b915061196783611a19565b9250827fffffffffffffffffffffffffffffffffffffffffffffffffffffffffffffffff0382111561199c5761199b611a9d565b5b828201905092915050565b60006119b282611a19565b91506119bd83611a19565b9250828210156119d0576119cf611a9d565b5b828203905092915050565b60006119e6826119f9565b9050919050565b60008115159050919050565b600073ffffffffffffffffffffffffffffffffffffffff82169050919050565b6000819050919050565b611a2c82611afb565b810181811067ffffffffffffffff82111715611a4b57611a4a611acc565b5b80604052505050565b6000611a5f82611a19565b91507fffffffffffffffffffffffffffffffffffffffffffffffffffffffffffffffff821415611a9257611a91611a9d565b5b600182019050919050565b7f4e487b7100000000000000000000000000000000000000000000000000000000600052601160045260246000fd5b7f4e487b7100000000000000000000000000000000000000000000000000000000600052604160045260246000fd5b6000601f19601f8301169050919050565b7f7661756c7449642073686f756c6420626520706f736974697665000000000000600082015250565b7f43616e6e6f7420636c61696d206265666f726520746172676574206461746500600082015250565b7f546f6b656e20636f6e7472616374206973206e756c6c00000000000000000000600082015250565b7f416d6f756e742073656e7420646f6573206e6f74206d6174636820666f72206c60008201527f6f636b732076616c756500000000000000000000000000000000000000000000602082015250565b7f416c726561647920636c61696d65640000000000000000000000000000000000600082015250565b7f456d70747920636865636b706f696e7400000000000000000000000000000000600082015250565b7f4461746520696e2074686520706173742073656c656374656400000000000000600082015250565b7f546f6b656e20636f756e74206d75737420626520706f736974697665206e756d60008201527f6265720000000000000000000000000000000000000000000000000000000000602082015250565b611ca9816119db565b8114611cb457600080fd5b50565b611cc0816119ed565b8114611ccb57600080fd5b50565b611cd781611a19565b8114611ce257600080fd5b5056fea264697066735822122002ee27455e486854f0d9e0708b708d8863ccdeb27f77845d8dd445097496eff064736f6c63430008010033",
  "immutableReferences": {},
  "source": "// SPDX-License-Identifier: MIT\npragma solidity ^0.8.1;\n\nimport \"@openzeppelin/contracts/token/ERC20/ERC20.sol\";\n\ncontract Locker {\n    event VaultCreated(\n        address tokenContract,\n        ReleaseCheckpoint[] releaseCheckpoints,\n        uint256 index\n    );\n    event VaultClaimed(uint256 index);\n\n    struct ReleaseCheckpoint {\n        uint256 id;\n        uint256 tokensCount;\n        uint256 releaseTargetTimestamp;\n        bool claimed;\n    }\n\n    struct VestedTokenVault {\n        address tokenAddress;\n        //ETH for ethereum, BNB for BSC, AVAX for AVA c-chain\n        bool nativeToken;\n        ReleaseCheckpoint[] checkpoints;\n    }\n\n    struct UserLocks {\n        VestedTokenVault[] userVaults;\n    }\n\n    //every user has multiple vaults: he can store any token with different release schedules.\n    //Token might be duplicated, e.g.\n    //Vault1: USDC with 6 months lock + Vault2: USDC with 12 months lock + Vault3: DAI with custom schedule\n    mapping(address => UserLocks) userLocks;\n\n    function lockERC20(\n        address tokenContract,\n        ReleaseCheckpoint[] memory releaseCheckpoints\n    ) public returns (uint256) {\n        require(tokenContract != address(0), \"Token contract is null\");\n        //push new element to user's vault and get it's index\n        userLocks[msg.sender].userVaults.push();\n        uint256 vaultIndex = userLocks[msg.sender].userVaults.length - 1;\n\n        //get created user Vault by index\n        VestedTokenVault storage targetVault = userLocks[msg.sender].userVaults[\n            vaultIndex\n        ];\n        //fill input data\n        targetVault.tokenAddress = tokenContract;\n        targetVault.nativeToken = false;\n\n        uint256 totalTransfer = 0;\n        for (uint256 i; i < releaseCheckpoints.length; i++) {\n            require(\n                releaseCheckpoints[i].releaseTargetTimestamp > block.timestamp,\n                \"Date in the past selected\"\n            );\n            require(\n                releaseCheckpoints[i].tokensCount > 0,\n                \"Token count must be positive number\"\n            );\n\n            targetVault.checkpoints.push(\n                ReleaseCheckpoint({\n                    id: i,\n                    tokensCount: releaseCheckpoints[i].tokensCount,\n                    releaseTargetTimestamp: releaseCheckpoints[i]\n                        .releaseTargetTimestamp,\n                    claimed: false\n                })\n            );\n            totalTransfer += releaseCheckpoints[i].tokensCount;\n        }\n\n        //create release checkpoint to created vault\n        //userLocks[msg.sender].userVaults[vaultIndex].checkpoints.push();\n\n        //get checkpoint, in this this case here will be only one element\n        //ReleaseCheckpoint storage checkpoint = targetVault.checkpoints[0];\n\n        IERC20(tokenContract).transferFrom(\n            msg.sender,\n            address(this),\n            totalTransfer\n        );\n        emit VaultCreated(tokenContract, releaseCheckpoints, vaultIndex);\n        return vaultIndex;\n    }\n\n    function lockNativeCurrency(ReleaseCheckpoint[] memory cps) public payable {\n        uint256 amountSent = 0;\n        for (uint256 i = 0; i < cps.length; i++) {\n            ReleaseCheckpoint memory cp = cps[i];\n            require(\n                cp.releaseTargetTimestamp > block.timestamp,\n                \"Date in the past selected\"\n            );\n            require(cp.tokensCount > 0, \"Empty checkpoint\");\n\n            amountSent += cp.tokensCount;\n        }\n\n        require(\n            amountSent == msg.value,\n            \"Amount sent does not match for locks value\"\n        );\n\n        //push new element to user's vault and get it's index\n        userLocks[msg.sender].userVaults.push();\n        uint256 vaultIndex = userLocks[msg.sender].userVaults.length - 1;\n\n        //get created user Vault by index\n        VestedTokenVault storage targetVault = userLocks[msg.sender].userVaults[\n            vaultIndex\n        ];\n\n        //userLocks[msg.sender].userVaults[vaultIndex].checkpoints = new ReleaseCheckpoint[](cps.length);\n        targetVault.nativeToken = true;\n\n        for (uint256 i = 0; i < cps.length; i++) {\n            ReleaseCheckpoint memory cp1 = ReleaseCheckpoint({\n                id: i,\n                tokensCount: cps[i].tokensCount,\n                releaseTargetTimestamp: cps[i].releaseTargetTimestamp,\n                claimed: false\n            });\n\n            targetVault.checkpoints.push(cp1);\n        }\n    }\n\n    function claimByVaultId(uint256 vaultId, uint256[] calldata checkpoints)\n        public\n        payable\n        returns (bool)\n    {\n        require(vaultId >= 0, \"vaultId should be positive\");\n\n        VestedTokenVault storage vault = userLocks[msg.sender].userVaults[\n            vaultId\n        ];\n\n        uint256 amountSent = 0;\n        for (uint256 i = 0; i < checkpoints.length; i++) {\n            uint256 cpid = checkpoints[i];\n            ReleaseCheckpoint storage cp = vault.checkpoints[cpid];\n            require(cp.claimed == false, \"Already claimed\");\n            require(\n                cp.releaseTargetTimestamp <= block.timestamp,\n                \"Cannot claim before target date\"\n            );  \n\n            amountSent += cp.tokensCount;\n            cp.claimed = true;\n        }\n\n        if (vault.nativeToken) {\n            payable(msg.sender).transfer(amountSent);\n        } else {\n            IERC20(vault.tokenAddress).transfer(\n                msg.sender,\n                amountSent\n            );\n        }\n\n        emit VaultClaimed(vaultId);\n        return true;\n    }\n\n    function getUserVaults(address userAddress)\n        public\n        view\n        returns (UserLocks memory)\n    {\n        return userLocks[userAddress];\n    }\n}\n",
  "sourcePath": "/Users/kirill/Projects/Token-locker/ethereum/contracts/Locker.sol",
  "compiler": {
    "name": "solc",
    "version": "0.8.1+commit.df193b15.Emscripten.clang"
  },
  "schemaVersion": "3.4.7",
  "updatedAt": "2022-06-04T11:29:17.988Z",
  "devdoc": {
    "kind": "dev",
    "methods": {},
    "version": 1
  },
  "userdoc": {
    "kind": "user",
    "methods": {},
    "version": 1
  }
}