{
  "contractName": "Locker",
  "abi": [
    {
      "inputs": [
        {
          "internalType": "uint256",
          "name": "targetTimestamp",
          "type": "uint256"
        },
        {
          "internalType": "address",
          "name": "tokenContract",
          "type": "address"
        },
        {
          "internalType": "uint256",
          "name": "tokenCount",
          "type": "uint256"
        }
      ],
      "name": "lock",
      "outputs": [
        {
          "internalType": "uint256",
          "name": "",
          "type": "uint256"
        }
      ],
      "stateMutability": "nonpayable",
      "type": "function"
    },
    {
      "inputs": [
        {
          "components": [
            {
              "internalType": "uint256",
              "name": "id",
              "type": "uint256"
            },
            {
              "internalType": "uint256",
              "name": "tokensCount",
              "type": "uint256"
            },
            {
              "internalType": "uint256",
              "name": "releaseTargetTimestamp",
              "type": "uint256"
            },
            {
              "internalType": "bool",
              "name": "claimed",
              "type": "bool"
            }
          ],
          "internalType": "struct Locker.ReleaseCheckpoint[]",
          "name": "cps",
          "type": "tuple[]"
        }
      ],
      "name": "lockNativeCurrency",
      "outputs": [],
      "stateMutability": "payable",
      "type": "function",
      "payable": true
    },
    {
      "inputs": [
        {
          "internalType": "uint256",
          "name": "vaultId",
          "type": "uint256"
        }
      ],
      "name": "claimByVaultId",
      "outputs": [
        {
          "internalType": "bool",
          "name": "",
          "type": "bool"
        }
      ],
      "stateMutability": "payable",
      "type": "function",
      "payable": true
    },
    {
      "inputs": [
        {
          "internalType": "address",
          "name": "userAddress",
          "type": "address"
        }
      ],
      "name": "getUserVaults",
      "outputs": [
        {
          "components": [
            {
              "components": [
                {
                  "internalType": "address",
                  "name": "tokenAddress",
                  "type": "address"
                },
                {
                  "internalType": "bool",
                  "name": "nativeToken",
                  "type": "bool"
                },
                {
                  "components": [
                    {
                      "internalType": "uint256",
                      "name": "id",
                      "type": "uint256"
                    },
                    {
                      "internalType": "uint256",
                      "name": "tokensCount",
                      "type": "uint256"
                    },
                    {
                      "internalType": "uint256",
                      "name": "releaseTargetTimestamp",
                      "type": "uint256"
                    },
                    {
                      "internalType": "bool",
                      "name": "claimed",
                      "type": "bool"
                    }
                  ],
                  "internalType": "struct Locker.ReleaseCheckpoint[]",
                  "name": "checkpoints",
                  "type": "tuple[]"
                }
              ],
              "internalType": "struct Locker.VestedTokenVault[]",
              "name": "userVaults",
              "type": "tuple[]"
            }
          ],
          "internalType": "struct Locker.UserLocks",
          "name": "",
          "type": "tuple"
        }
      ],
      "stateMutability": "view",
      "type": "function",
      "constant": true
    }
  ],
  "bytecode": "0x608060405234801561001057600080fd5b50611c35806100206000396000f3fe60806040526004361061003f5760003560e01c80631e5e285c14610044578063436f2f4714610074578063cf27cfc414610090578063e7f3c69c146100cd575b600080fd5b61005e6004803603810190610059919061114f565b61010a565b60405161006b91906115ad565b60405180910390f35b61008e600480360381019061008991906110e5565b6104e5565b005b34801561009c57600080fd5b506100b760048036038101906100b29190611178565b6108cc565b6040516100c4919061172a565b60405180910390f35b3480156100d957600080fd5b506100f460048036038101906100ef91906110bc565b610d8b565b6040516101019190611708565b60405180910390f35b60008082101561014f576040517f08c379a0000000000000000000000000000000000000000000000000000000008152600401610146906115e8565b60405180910390fd5b60008060003373ffffffffffffffffffffffffffffffffffffffff1673ffffffffffffffffffffffffffffffffffffffff16815260200190815260200160002060000183815481106101ca577f4e487b7100000000000000000000000000000000000000000000000000000000600052603260045260246000fd5b90600052602060002090600202019050600081600101600081548110610219577f4e487b7100000000000000000000000000000000000000000000000000000000600052603260045260246000fd5b90600052602060002090600402019050600015158160030160009054906101000a900460ff16151514610281576040517f08c379a000000000000000000000000000000000000000000000000000000000815260040161027890611668565b60405180910390fd5b42816002015411156102c8576040517f08c379a00000000000000000000000000000000000000000000000000000000081526004016102bf90611608565b60405180910390fd5b8160000160149054906101000a900460ff161561039c573373ffffffffffffffffffffffffffffffffffffffff166108fc83600101600081548110610336577f4e487b7100000000000000000000000000000000000000000000000000000000600052603260045260246000fd5b9060005260206000209060040201600101549081150290604051600060405180830381858888f19350505050158015610373573d6000803e3d6000fd5b5060018160030160006101000a81548160ff0219169083151502179055506001925050506104e0565b8160000160009054906101000a900473ffffffffffffffffffffffffffffffffffffffff1673ffffffffffffffffffffffffffffffffffffffff1663a9059cbb3383600101546040518363ffffffff1660e01b81526004016103ff929190611584565b602060405180830381600087803b15801561041957600080fd5b505af192505050801561044a57506040513d601f19601f820116820180604052508101906104479190611126565b60015b6104bb573d806000811461047a576040519150601f19603f3d011682016040523d82523d6000602084013e61047f565b606091505b506040517f08c379a00000000000000000000000000000000000000000000000000000000081526004016104b2906115c8565b60405180910390fd5b60018260030160006101000a81548160ff021916908315150217905550600193505050505b919050565b6000805b82518110156105ea57600083828151811061052d577f4e487b7100000000000000000000000000000000000000000000000000000000600052603260045260246000fd5b602002602001015190504281604001511161057d576040517f08c379a0000000000000000000000000000000000000000000000000000000008152600401610574906116c8565b60405180910390fd5b60008160200151116105c4576040517f08c379a00000000000000000000000000000000000000000000000000000000081526004016105bb90611688565b60405180910390fd5b8060200151836105d49190611819565b92505080806105e29061191c565b9150506104e9565b5034811461062d576040517f08c379a000000000000000000000000000000000000000000000000000000000815260040161062490611648565b60405180910390fd5b6000803373ffffffffffffffffffffffffffffffffffffffff1673ffffffffffffffffffffffffffffffffffffffff16815260200190815260200160002060000160018160018154018082558091505003906000526020600020905050600060016000803373ffffffffffffffffffffffffffffffffffffffff1673ffffffffffffffffffffffffffffffffffffffff168152602001908152602001600020600001805490506106dd919061186f565b905060008060003373ffffffffffffffffffffffffffffffffffffffff1673ffffffffffffffffffffffffffffffffffffffff168152602001908152602001600020600001828154811061075a577f4e487b7100000000000000000000000000000000000000000000000000000000600052603260045260246000fd5b9060005260206000209060020201905060018160000160146101000a81548160ff02191690831515021790555060005b84518110156108c557600060405180608001604052808381526020018784815181106107df577f4e487b7100000000000000000000000000000000000000000000000000000000600052603260045260246000fd5b6020026020010151602001518152602001878481518110610829577f4e487b7100000000000000000000000000000000000000000000000000000000600052603260045260246000fd5b60200260200101516040015181526020016000151581525090508260010181908060018154018082558091505060019003906000526020600020906004020160009091909190915060008201518160000155602082015181600101556040820151816002015560608201518160030160006101000a81548160ff02191690831515021790555050505080806108bd9061191c565b91505061078a565b5050505050565b6000428411610910576040517f08c379a0000000000000000000000000000000000000000000000000000000008152600401610907906116c8565b60405180910390fd5b60008211610953576040517f08c379a000000000000000000000000000000000000000000000000000000000815260040161094a906116e8565b60405180910390fd5b600073ffffffffffffffffffffffffffffffffffffffff168373ffffffffffffffffffffffffffffffffffffffff1614156109c3576040517f08c379a00000000000000000000000000000000000000000000000000000000081526004016109ba90611628565b60405180910390fd5b6000803373ffffffffffffffffffffffffffffffffffffffff1673ffffffffffffffffffffffffffffffffffffffff16815260200190815260200160002060000160018160018154018082558091505003906000526020600020905050600060016000803373ffffffffffffffffffffffffffffffffffffffff1673ffffffffffffffffffffffffffffffffffffffff16815260200190815260200160002060000180549050610a73919061186f565b90506000803373ffffffffffffffffffffffffffffffffffffffff1673ffffffffffffffffffffffffffffffffffffffff1681526020019081526020016000206000018181548110610aee577f4e487b7100000000000000000000000000000000000000000000000000000000600052603260045260246000fd5b90600052602060002090600202016001016001816001815401808255809150500390600052602060002090505060008060003373ffffffffffffffffffffffffffffffffffffffff1673ffffffffffffffffffffffffffffffffffffffff1681526020019081526020016000206000018281548110610b96577f4e487b7100000000000000000000000000000000000000000000000000000000600052603260045260246000fd5b90600052602060002090600202019050600081600101600081548110610be5577f4e487b7100000000000000000000000000000000000000000000000000000000600052603260045260246000fd5b90600052602060002090600402019050858260000160006101000a81548173ffffffffffffffffffffffffffffffffffffffff021916908373ffffffffffffffffffffffffffffffffffffffff16021790555060008260000160146101000a81548160ff02191690831515021790555084816001018190555086816002018190555060008160030160006101000a81548160ff0219169083151502179055508573ffffffffffffffffffffffffffffffffffffffff166323b872dd3330886040518463ffffffff1660e01b8152600401610cc19392919061154d565b602060405180830381600087803b158015610cdb57600080fd5b505af1925050508015610d0c57506040513d601f19601f82011682018060405250810190610d099190611126565b60015b610d7d573d8060008114610d3c576040519150601f19603f3d011682016040523d82523d6000602084013e610d41565b606091505b506040517f08c379a0000000000000000000000000000000000000000000000000000000008152600401610d74906116a8565b60405180910390fd5b839450505050509392505050565b610d93610f4b565b6000808373ffffffffffffffffffffffffffffffffffffffff1673ffffffffffffffffffffffffffffffffffffffff16815260200190815260200160002060405180602001604052908160008201805480602002602001604051908101604052809291908181526020016000905b82821015610f3c57838290600052602060002090600202016040518060600160405290816000820160009054906101000a900473ffffffffffffffffffffffffffffffffffffffff1673ffffffffffffffffffffffffffffffffffffffff1673ffffffffffffffffffffffffffffffffffffffff1681526020016000820160149054906101000a900460ff1615151515815260200160018201805480602002602001604051908101604052809291908181526020016000905b82821015610f2557838290600052602060002090600402016040518060800160405290816000820154815260200160018201548152602001600282015481526020016003820160009054906101000a900460ff16151515158152505081526020019060010190610eba565b505050508152505081526020019060010190610e01565b50505050815250509050919050565b6040518060200160405280606081525090565b6000610f71610f6c8461176a565b611745565b90508083825260208201905082856080860282011115610f9057600080fd5b60005b85811015610fc05781610fa68882611033565b845260208401935060808301925050600181019050610f93565b5050509392505050565b600081359050610fd981611bba565b92915050565b600082601f830112610ff057600080fd5b8135611000848260208601610f5e565b91505092915050565b60008135905061101881611bd1565b92915050565b60008151905061102d81611bd1565b92915050565b60006080828403121561104557600080fd5b61104f6080611745565b9050600061105f848285016110a7565b6000830152506020611073848285016110a7565b6020830152506040611087848285016110a7565b604083015250606061109b84828501611009565b60608301525092915050565b6000813590506110b681611be8565b92915050565b6000602082840312156110ce57600080fd5b60006110dc84828501610fca565b91505092915050565b6000602082840312156110f757600080fd5b600082013567ffffffffffffffff81111561111157600080fd5b61111d84828501610fdf565b91505092915050565b60006020828403121561113857600080fd5b60006111468482850161101e565b91505092915050565b60006020828403121561116157600080fd5b600061116f848285016110a7565b91505092915050565b60008060006060848603121561118d57600080fd5b600061119b868287016110a7565b93505060206111ac86828701610fca565b92505060406111bd868287016110a7565b9150509250925092565b60006111d38383611460565b60808301905092915050565b60006111eb83836114df565b905092915050565b6111fc816118a3565b82525050565b61120b816118a3565b82525050565b600061121c826117b6565b61122681856117e6565b935061123183611796565b8060005b8381101561126257815161124988826111c7565b9750611254836117cc565b925050600181019050611235565b5085935050505092915050565b600061127a826117c1565b61128481856117f7565b935083602082028501611296856117a6565b8060005b858110156112d257848403895281516112b385826111df565b94506112be836117d9565b925060208a0199505060018101905061129a565b50829750879550505050505092915050565b6112ed816118b5565b82525050565b6112fc816118b5565b82525050565b600061130f600e83611808565b915061131a826119d4565b602082019050919050565b6000611332601a83611808565b915061133d826119fd565b602082019050919050565b6000611355601f83611808565b915061136082611a26565b602082019050919050565b6000611378601683611808565b915061138382611a4f565b602082019050919050565b600061139b602a83611808565b91506113a682611a78565b604082019050919050565b60006113be600f83611808565b91506113c982611ac7565b602082019050919050565b60006113e1601083611808565b91506113ec82611af0565b602082019050919050565b6000611404601283611808565b915061140f82611b19565b602082019050919050565b6000611427601983611808565b915061143282611b42565b602082019050919050565b600061144a602383611808565b915061145582611b6b565b604082019050919050565b608082016000820151611476600085018261152f565b506020820151611489602085018261152f565b50604082015161149c604085018261152f565b5060608201516114af60608501826112e4565b50505050565b600060208301600083015184820360008601526114d2828261126f565b9150508091505092915050565b60006060830160008301516114f760008601826111f3565b50602083015161150a60208601826112e4565b50604083015184820360408601526115228282611211565b9150508091505092915050565b611538816118e1565b82525050565b611547816118e1565b82525050565b60006060820190506115626000830186611202565b61156f6020830185611202565b61157c604083018461153e565b949350505050565b60006040820190506115996000830185611202565b6115a6602083018461153e565b9392505050565b60006020820190506115c260008301846112f3565b92915050565b600060208201905081810360008301526115e181611302565b9050919050565b6000602082019050818103600083015261160181611325565b9050919050565b6000602082019050818103600083015261162181611348565b9050919050565b600060208201905081810360008301526116418161136b565b9050919050565b600060208201905081810360008301526116618161138e565b9050919050565b60006020820190508181036000830152611681816113b1565b9050919050565b600060208201905081810360008301526116a1816113d4565b9050919050565b600060208201905081810360008301526116c1816113f7565b9050919050565b600060208201905081810360008301526116e18161141a565b9050919050565b600060208201905081810360008301526117018161143d565b9050919050565b6000602082019050818103600083015261172281846114b5565b905092915050565b600060208201905061173f600083018461153e565b92915050565b600061174f611760565b905061175b82826118eb565b919050565b6000604051905090565b600067ffffffffffffffff82111561178557611784611994565b5b602082029050602081019050919050565b6000819050602082019050919050565b6000819050602082019050919050565b600081519050919050565b600081519050919050565b6000602082019050919050565b6000602082019050919050565b600082825260208201905092915050565b600082825260208201905092915050565b600082825260208201905092915050565b6000611824826118e1565b915061182f836118e1565b9250827fffffffffffffffffffffffffffffffffffffffffffffffffffffffffffffffff0382111561186457611863611965565b5b828201905092915050565b600061187a826118e1565b9150611885836118e1565b92508282101561189857611897611965565b5b828203905092915050565b60006118ae826118c1565b9050919050565b60008115159050919050565b600073ffffffffffffffffffffffffffffffffffffffff82169050919050565b6000819050919050565b6118f4826119c3565b810181811067ffffffffffffffff8211171561191357611912611994565b5b80604052505050565b6000611927826118e1565b91507fffffffffffffffffffffffffffffffffffffffffffffffffffffffffffffffff82141561195a57611959611965565b5b600182019050919050565b7f4e487b7100000000000000000000000000000000000000000000000000000000600052601160045260246000fd5b7f4e487b7100000000000000000000000000000000000000000000000000000000600052604160045260246000fd5b6000601f19601f8301169050919050565b7f5472616e73666572206572726f72000000000000000000000000000000000000600082015250565b7f7661756c7449642073686f756c6420626520706f736974697665000000000000600082015250565b7f43616e6e6f7420636c61696d206265666f726520746172676574206461746500600082015250565b7f546f6b656e20636f6e7472616374206973206e756c6c00000000000000000000600082015250565b7f416d6f756e742073656e7420646f6573206e6f74206d6174636820666f72206c60008201527f6f636b732076616c756500000000000000000000000000000000000000000000602082015250565b7f416c726561647920636c61696d65640000000000000000000000000000000000600082015250565b7f456d70747920636865636b706f696e7400000000000000000000000000000000600082015250565b7f4e6f7420616e20455243323020746f6b656e0000000000000000000000000000600082015250565b7f4461746520696e2074686520706173742073656c656374656400000000000000600082015250565b7f546f6b656e20636f756e74206d75737420626520706f736974697665206e756d60008201527f6265720000000000000000000000000000000000000000000000000000000000602082015250565b611bc3816118a3565b8114611bce57600080fd5b50565b611bda816118b5565b8114611be557600080fd5b50565b611bf1816118e1565b8114611bfc57600080fd5b5056fea2646970667358221220862264f4503c4ccf70256e85e1e99818c74e96e59fa1f1d616ac87c4d428c9db64736f6c63430008010033",
  "immutableReferences": {},
  "source": "// SPDX-License-Identifier: MIT\npragma solidity ^0.8.1;\n\nimport \"@openzeppelin/contracts/token/ERC20/ERC20.sol\";\nimport \"@openzeppelin/contracts/utils/math/SafeMath.sol\";\n\ncontract Locker {\n    using SafeMath for uint256;\n\n    struct ReleaseCheckpoint {\n        uint256 id;\n        uint256 tokensCount;\n        uint256 releaseTargetTimestamp;\n        bool claimed;\n    }\n\n    struct VestedTokenVault {\n        address tokenAddress;\n        //ETH for ethereum, BNB for BSC, AVAX for AVA c-chain\n        bool nativeToken;\n        ReleaseCheckpoint[] checkpoints;\n    }\n\n    struct UserLocks {\n        VestedTokenVault[] userVaults;\n    }\n\n    //every user has multiple vaults: he can store any token with different release schedules.\n    //Token might be duplicated, e.g.\n    //Vault1: USDC with 6 months lock + Vault2: USDC with 12 months lock + Vault3: DAI with custom schedule\n    mapping(address => UserLocks) userLocks;\n\n    function lock(\n        uint256 targetTimestamp,\n        address tokenContract,\n        uint256 tokenCount\n    ) public returns (uint256) {\n        require(targetTimestamp > block.timestamp, \"Date in the past selected\");\n        require(tokenCount > 0, \"Token count must be positive number\");\n        require(tokenContract != address(0), \"Token contract is null\");\n\n        //push new element to user's vault and get it's index\n        userLocks[msg.sender].userVaults.push();\n        uint256 vaultIndex = userLocks[msg.sender].userVaults.length - 1;\n\n        //create release checkpoint to created vault\n        userLocks[msg.sender].userVaults[vaultIndex].checkpoints.push();\n\n        //get created user Vault by index\n        VestedTokenVault storage targetVault = userLocks[msg.sender].userVaults[\n            vaultIndex\n        ];\n\n        //get checkpoint, in this this case here will be only one element\n        ReleaseCheckpoint storage checkpoint = targetVault.checkpoints[0];\n\n        //fill input data\n        targetVault.tokenAddress = tokenContract;\n        targetVault.nativeToken = false;\n        checkpoint.tokensCount = tokenCount;\n        checkpoint.releaseTargetTimestamp = targetTimestamp;\n        checkpoint.claimed = false;\n\n        //transfer token to vault\n        try\n            IERC20(tokenContract).transferFrom(\n                msg.sender,\n                address(this),\n                tokenCount\n            )\n        returns (bool) {\n            return vaultIndex;\n        } catch (bytes memory) {\n            revert(\"Not an ERC20 token\");\n        }\n    }\n\n    function lockNativeCurrency(ReleaseCheckpoint[] memory cps) public payable {\n        uint256 amountSent = 0;\n        for (uint256 i = 0; i < cps.length; i++) {\n            ReleaseCheckpoint memory cp = cps[i];\n            require(\n                cp.releaseTargetTimestamp > block.timestamp,\n                \"Date in the past selected\"\n            );\n            require(cp.tokensCount > 0, \"Empty checkpoint\");\n\n            amountSent += cp.tokensCount;\n        }\n\n        require(\n            amountSent == msg.value,\n            \"Amount sent does not match for locks value\"\n        );\n\n        //push new element to user's vault and get it's index\n        userLocks[msg.sender].userVaults.push();\n        uint256 vaultIndex = userLocks[msg.sender].userVaults.length - 1;\n\n        //get created user Vault by index\n        VestedTokenVault storage targetVault = userLocks[msg.sender].userVaults[\n            vaultIndex\n        ];\n\n        //userLocks[msg.sender].userVaults[vaultIndex].checkpoints = new ReleaseCheckpoint[](cps.length);\n        targetVault.nativeToken = true;\n        \n        for (uint256 i = 0; i < cps.length; i++) {\n            ReleaseCheckpoint memory cp1 = ReleaseCheckpoint ({\n                id: i,\n                tokensCount: cps[i].tokensCount,\n                releaseTargetTimestamp: cps[i].releaseTargetTimestamp,\n                claimed: false\n            });\n\n            targetVault.checkpoints.push(cp1);\n        }\n    }\n\n    function claimByVaultId(uint256 vaultId) public payable returns (bool) {\n        require(vaultId >= 0, \"vaultId should be positive\");\n\n        VestedTokenVault storage vault = userLocks[msg.sender].userVaults[\n            vaultId\n        ];\n        ReleaseCheckpoint storage checkpoint = vault.checkpoints[0];\n\n        require(checkpoint.claimed == false, \"Already claimed\");\n        require(\n            checkpoint.releaseTargetTimestamp <= block.timestamp,\n            \"Cannot claim before target date\"\n        );\n\n        if (vault.nativeToken) {\n            payable(msg.sender).transfer(vault.checkpoints[0].tokensCount);\n            checkpoint.claimed = true;\n            return true;\n        } else {\n            try\n                IERC20(vault.tokenAddress).transfer(\n                    msg.sender,\n                    checkpoint.tokensCount\n                )\n            returns (bool) {\n                checkpoint.claimed = true;\n                return true;\n            } catch (bytes memory) {\n                revert(\"Transfer error\");\n            }\n        }\n    }\n\n    function getUserVaults(address userAddress)\n        public\n        view\n        returns (UserLocks memory)\n    {\n        return userLocks[userAddress];\n    }\n}\n",
  "sourcePath": "/Users/kirill/Projects/Token-locker/ethereum/contracts/Locker.sol",
  "compiler": {
    "name": "solc",
    "version": "0.8.1+commit.df193b15.Emscripten.clang"
  },
  "schemaVersion": "3.4.7",
  "updatedAt": "2022-05-30T20:50:56.039Z",
  "networkType": "ethereum",
  "devdoc": {
    "kind": "dev",
    "methods": {},
    "version": 1
  },
  "userdoc": {
    "kind": "user",
    "methods": {},
    "version": 1
  }
}